{
  "contractName": "ProjectApproval",
  "abi": [
    {
      "inputs": [],
      "payable": false,
      "stateMutability": "nonpayable",
      "type": "constructor"
    },
    {
      "anonymous": false,
      "inputs": [
        {
          "indexed": true,
          "internalType": "uint256",
          "name": "_projectId",
          "type": "uint256"
        }
      ],
      "name": "votedEvent",
      "type": "event"
    },
    {
      "payable": true,
      "stateMutability": "payable",
      "type": "fallback"
    },
    {
      "constant": true,
      "inputs": [
        {
          "internalType": "uint256",
          "name": "",
          "type": "uint256"
        }
      ],
      "name": "projects",
      "outputs": [
        {
          "internalType": "uint256",
          "name": "id",
          "type": "uint256"
        },
        {
          "internalType": "string",
          "name": "name",
          "type": "string"
        },
        {
          "internalType": "uint256",
          "name": "voteCount",
          "type": "uint256"
        },
        {
          "internalType": "uint256",
          "name": "contractValue",
          "type": "uint256"
        }
      ],
      "payable": false,
      "stateMutability": "view",
      "type": "function"
    },
    {
      "constant": true,
      "inputs": [],
      "name": "projectsCount",
      "outputs": [
        {
          "internalType": "uint256",
          "name": "",
          "type": "uint256"
        }
      ],
      "payable": false,
      "stateMutability": "view",
      "type": "function"
    },
    {
      "constant": true,
      "inputs": [
        {
          "internalType": "address",
          "name": "",
          "type": "address"
        }
      ],
      "name": "voters",
      "outputs": [
        {
          "internalType": "bool",
          "name": "",
          "type": "bool"
        }
      ],
      "payable": false,
      "stateMutability": "view",
      "type": "function"
    },
    {
      "constant": false,
      "inputs": [
        {
          "internalType": "uint256",
          "name": "_projectId",
          "type": "uint256"
        }
      ],
      "name": "vote",
      "outputs": [],
      "payable": false,
      "stateMutability": "nonpayable",
      "type": "function"
    },
    {
      "constant": false,
      "inputs": [],
      "name": "deposit",
      "outputs": [],
      "payable": true,
      "stateMutability": "payable",
      "type": "function"
    }
  ],
  "bytecode": "0x60806040527338126e7887e41c37eaf221e1ba7f5f32b09c646e6000806101000a81548173ffffffffffffffffffffffffffffffffffffffff021916908373ffffffffffffffffffffffffffffffffffffffff16021790555073054602554c41b232d8f0dcf6613b8dece17ada46600160006101000a81548173ffffffffffffffffffffffffffffffffffffffff021916908373ffffffffffffffffffffffffffffffffffffffff16021790555073ec0ab680346358458c99130696038973b6805f8f600260006101000a81548173ffffffffffffffffffffffffffffffffffffffff021916908373ffffffffffffffffffffffffffffffffffffffff160217905550730fd728ba4b80f106e58a2ddb32b3bebac44456bb600360006101000a81548173ffffffffffffffffffffffffffffffffffffffff021916908373ffffffffffffffffffffffffffffffffffffffff16021790555034801561016357600080fd5b506101aa6040518060400160405280601f81526020017f4e65772057616c6573204d6964646c65205363686f6f6c205068617365203100815250600a6101af60201b60201c565b6102e1565b60066000815480929190600101919050555060405180608001604052806006548152602001838152602001600081526020018281525060056000600654815260200190815260200160002060008201518160000155602082015181600101908051906020019061022092919061023c565b5060408201518160020155606082015181600301559050505050565b828054600181600116156101000203166002900490600052602060002090601f016020900481019282601f1061027d57805160ff19168380011785556102ab565b828001600101855582156102ab579182015b828111156102aa57825182559160200191906001019061028f565b5b5090506102b891906102bc565b5090565b6102de91905b808211156102da5760008160009055506001016102c2565b5090565b90565b61061f806102f06000396000f3fe60806040526004361061004a5760003560e01c80630121b93f14610054578063107046bd1461008f578063a3ec138d14610158578063c73b302e146101c1578063d0e30db0146101ec575b6100526101f6565b005b34801561006057600080fd5b5061008d6004803603602081101561007757600080fd5b81019080803590602001909291905050506103dc565b005b34801561009b57600080fd5b506100c8600480360360208110156100b257600080fd5b81019080803590602001909291905050506104fc565b6040518085815260200180602001848152602001838152602001828103825285818151815260200191508051906020019080838360005b8381101561011a5780820151818401526020810190506100ff565b50505050905090810190601f1680156101475780820380516001836020036101000a031916815260200191505b509550505050505060405180910390f35b34801561016457600080fd5b506101a76004803603602081101561017b57600080fd5b81019080803573ffffffffffffffffffffffffffffffffffffffff1690602001909291905050506105c4565b604051808215151515815260200191505060405180910390f35b3480156101cd57600080fd5b506101d66105e4565b6040518082815260200191505060405180910390f35b6101f46101f6565b005b60006064348161020257fe5b049050600080603c8302905080820191506000809054906101000a900473ffffffffffffffffffffffffffffffffffffffff1673ffffffffffffffffffffffffffffffffffffffff166108fc829081150290604051600060405180830381858888f1935050505015801561027a573d6000803e3d6000fd5b506014830290508082019150600160009054906101000a900473ffffffffffffffffffffffffffffffffffffffff1673ffffffffffffffffffffffffffffffffffffffff166108fc829081150290604051600060405180830381858888f193505050501580156102ee573d6000803e3d6000fd5b50600f830290508082019150600260009054906101000a900473ffffffffffffffffffffffffffffffffffffffff1673ffffffffffffffffffffffffffffffffffffffff166108fc829081150290604051600060405180830381858888f19350505050158015610362573d6000803e3d6000fd5b506005830290508082019150600360009054906101000a900473ffffffffffffffffffffffffffffffffffffffff1673ffffffffffffffffffffffffffffffffffffffff166108fc829081150290604051600060405180830381858888f193505050501580156103d6573d6000803e3d6000fd5b50505050565b600460003373ffffffffffffffffffffffffffffffffffffffff1673ffffffffffffffffffffffffffffffffffffffff16815260200190815260200160002060009054906101000a900460ff161561043357600080fd5b60008111801561044557506006548111155b61044e57600080fd5b6001600460003373ffffffffffffffffffffffffffffffffffffffff1673ffffffffffffffffffffffffffffffffffffffff16815260200190815260200160002060006101000a81548160ff0219169083151502179055506005600082815260200190815260200160002060020160008154809291906001019190505550807ffff3c900d938d21d0990d786e819f29b8d05c1ef587b462b939609625b684b1660405160405180910390a250565b6005602052806000526040600020600091509050806000015490806001018054600181600116156101000203166002900480601f0160208091040260200160405190810160405280929190818152602001828054600181600116156101000203166002900480156105ae5780601f10610583576101008083540402835291602001916105ae565b820191906000526020600020905b81548152906001019060200180831161059157829003601f168201915b5050505050908060020154908060030154905084565b60046020528060005260406000206000915054906101000a900460ff1681565b6006548156fea265627a7a7231582025d22babfa6cf0905f95d748eef18ad89e06c906acbd749989cfefd2a372476264736f6c63430005100032",
  "source": "pragma solidity ^0.5.0;\r\n\r\ncontract ProjectApproval {\r\n\r\n    // Project Accounts  \r\n    address payable debt           = 0x38126e7887E41C37EaF221E1Ba7F5F32b09C646e;\r\n    address payable community_fund = 0x054602554C41b232D8F0DCF6613b8decE17aDA46;\r\n    address payable multi_year     = 0xEc0ab680346358458C99130696038973b6805F8f;\r\n    address payable general_fund   = 0x0fd728Ba4B80f106E58A2dDb32B3Bebac44456Bb;\r\n\r\n    // Template for a Project\r\n    struct Project {\r\n        uint id;\r\n        string name;\r\n        uint voteCount;\r\n        uint contractValue;\r\n    }\r\n\r\n    // Store accounts that have voted\r\n    mapping(address => bool) public voters;\r\n\r\n    // maps ID's to projects\r\n    mapping(uint => Project) public projects;\r\n\r\n    // tracks project ID's\r\n    uint public projectsCount;\r\n\r\n    // voted event\r\n    event votedEvent (\r\n        uint indexed _projectId\r\n    );\r\n\r\n    constructor() public {\r\n        addProject(\"New Wales Middle School Phase 1\", 10);\r\n    }\r\n\r\n    // Function to add a project\r\n    function addProject (string memory _name, uint _contractValue) private {\r\n        projectsCount++;\r\n        projects[projectsCount] = Project(projectsCount, _name, 0, _contractValue);\r\n    }\r\n\r\n    // Function to mange Voting\r\n    function vote (uint _projectId) public {\r\n        // require that they haven't voted before\r\n        require(!voters[msg.sender]);\r\n\r\n        // require a valid project\r\n        require(_projectId > 0 && _projectId <= projectsCount);\r\n\r\n        // record that voter has voted\r\n        voters[msg.sender] = true;\r\n\r\n        // update project vote Count\r\n        projects[_projectId].voteCount ++;\r\n\r\n        // trigger voted event\r\n        emit votedEvent(_projectId);\r\n        }\r\n        \r\n    // Function to release funds upon project approval    \r\n    function deposit() public payable {\r\n    \r\n        // splits up the funds into percentages\r\n        uint points = msg.value / 100; // Calculates rudimentary percentage by dividing msg.value into 100 units\r\n        uint total;\r\n        uint amount;\r\n\r\n        // fund debt account\r\n        amount = points * 60;\r\n        total += amount;\r\n        debt.transfer(amount);\r\n\r\n        // fund community_fund \r\n        amount = points *20;\r\n        total += amount;\r\n        community_fund.transfer(amount);\r\n        \r\n        // fund multi_year\r\n        amount = points *15;\r\n        total += amount;\r\n        multi_year.transfer(amount);\r\n\r\n\r\n        // fund general_fund\r\n        amount = points *5;\r\n        total += amount;\r\n        general_fund.transfer(amount);\r\n   \r\n    }\r\n\r\n    function() external payable {\r\n        deposit();\r\n    }\r\n}",
  "sourcePath": "C:/Users/chrisb/Desktop/Project 3/ProjectApproval/contracts/ProjectApproval.sol",
  "compiler": {
    "name": "solc",
    "version": "0.5.16+commit.9c3226ce.Emscripten.clang"
  },
  "schemaVersion": "3.3.4",
  "updatedAt": "2021-03-11T00:38:44.213Z",
  "networkType": "ethereum",
  "devdoc": {
    "methods": {}
  },
  "userdoc": {
    "methods": {}
  }
}